:0300000002016298
:0C016200787FE4F6D8FD7581130201439C
:0A016E00C0F9A4B0999282F88090C5
:10000E008C128D13AB07AA06AE0EAF0F7C007D0AC5
:10001E001200668C0A8D0BAE0EAF0F7C007D0A129D
:10002E0000668E088F0975A002746E2BF58274011E
:10003E003AF583E493F5807F027E001200F275A0FC
:10004E0001746E2513F58274013512F583E493F570
:08005E00807F027E000200F227
:10014300120131AD09AC08AF0BAE0A12000E80F3F9
:0F01530020B20B30B2FD0511E51170020510222C
:100112007F207E4E7D707C17ED1D70011CED640109
:0E0122004C70F5EF1F70011EEF64014E70E689
:0101300022AC
:1000F200E4FDFCC3ED9FEC9E5015E4FBFA0BBB0044
:0F010200010AEB647B4A70F50DBD00010C80E42F
:0101110022CB
:10013100D2AFD2A9D28C758901758C3C758AAFC2B8
:0201410090220A
:03000B000200BB35
:1000BB00C0E0758C3C758AAF050DE50D7002050C23
:1000CB006414450C700CF50CF50D050FE50F700263
:1000DB00050EE50F643C450E700AD290C2AF758CCD
:0700EB003C758AAFD0E03242
:10006600BC000BBE0029EF8DF084FFADF022E4CC7E
:10007600F875F008EF2FFFEE33FEEC33FCEE9DEC47
:10008600984005FCEE9DFE0FD5F0E9E4CEFD22ED8D
:10009600F8F5F0EE8420D21CFEADF075F008EF2FD7
:1000A600FFED33FD4007985006D5F0F222C398FDC8
:0500B6000FD5F0EA2265
:00000001FF
