:030000000201ED0D
:0C01ED00787FE4F6D8FD75810F0201DE7A
:10000E0000000000000000000000000000000000E2
:10001E0020242424FE23222020FF20222CA0200096
:10002E0080642C342424EC322222322E23A260004F
:10003E0040301196909091969090981413503000F5
:10004E002030AC633000FC2425262424243C000000
:10005E002424A4FE2322003E22222222223E00003D
:10006E000000000000000000000000000000000082
:10007E00000848847F02414020130C142241F800EE
:10008E000041219189874D552525554D8180800050
:10009E00040404040444847E0605040404040400D9
:1000AE0022672212523807FF097F093F89FF00009D
:1000BE00080601FF0106404949497F494949410067
:1000CE00000102030405060708090A0B0C0D0E0FAA
:050003007E007F602279
:0F01DE001200038E0A8F0B1201CE1200DE80FB7F
:1000DE00E50B24F0FFE50A34FFFEEFB50909EEB596
:1000EE000805E4F508F509E4F50EF50F74CE250FB5
:1000FE00F5827400350EF583E493F5A0E50F25091E
:10010E00FFE50E3508FE740E2FF58274003EF58362
:10011E00E493F5807F027E001201AE050FE50F70AD
:10012E0002050EC39410E50E6480948040BEE4F583
:10013E0080F50EF50F74CE250FF5827400350EF591
:10014E0083E493F5A0E50F2509FFE50E3508FE744F
:10015E006E2FF58274003EF583E493F5907F027E58
:10016E00001201AE050FE50F7002050EC39410E5E7
:0A017E000E6480948040BEE4F5900A
:010188002254
:1001CE00758901D2A9D28C758C3C758AAFD2AF22BB
:1001AE00E4FDFCC3ED9FEC9E5015E4FBFA0BBB0087
:0F01BE00010AEB640C4A70F50DBD00010C80E4E2
:0101CD00220F
:03000B0002018966
:10018900C0E0758C3C758AAF050DE50D7002050C54
:100199006402450C700CF50CF50D0509E5097002B2
:0501A9000508D0E03262
:00000001FF
