:0300000002032ACE
:0C032A00787FE4F6D8FD75810D02000319
:1001AA00F88CF8F3F95BF9B8FA15FA67FAB9FB04AF
:1001BA00FB4BFB90FBCFFC10FC44FC79FCACFCDC59
:1001CA00FD09FD34FD5CFD82FDA6FDC8FDE8FE06C5
:1001DA00FE22FE3DFE56FE6EFE85FE9AFEAEFEC174
:1001EA00FED3FEE4FEF4FF03000C0004000C00043E
:1001FA000013000400130004001500040015000495
:10020A00001300080011000400110004001000048B
:10021A0000100004000E0004000E0004000C000888
:10022A00001300040013000400110004001100046C
:10023A000010000400100004000E0008001300045F
:10024A00001300040011000400110004001000044F
:10025A0000100004000E0008000C0004000C00044A
:10026A000013000400130004001500040015000424
:10027A00001300080011000400110004001000041B
:10028A0000100004000E0004000E0004000C000818
:10029A0000FF000000070002000700020009000436
:1002AA0000070004000C0004000B0008000700020D
:1002BA00000700020009000400070004000E000401
:1002CA00000C0008000700020007000200130004E7
:1002DA0000100004000C0004000B000400090004D4
:1002EA00001100040011000400100004000C0004B6
:0C02FA00000E0004000C000800FF0000D3
:0800030012033F12000E80FB06
:10000E002090239001C2E493FC740193FDECF5095A
:10001E00750800750A008D0B85098C850B8AD28CAC
:10002E003090FD1203082091219001C6E493FC74D8
:10003E000193FDECF509750800750A008D0B850915
:10004E008C850B8A3091FD1203062092219001CAF5
:10005E00E493FC740193FDECF509750800750A0034
:10006E008D0B85098C850B8A3092FD120306209329
:10007E00219001CCE493FC740193FDECF509750815
:10008E0000750A008D0B85098C850B8A3093FD1245
:10009E0003062094219001D0E493FC740193FDECAF
:1000AE00F509750800750A008D0B85098C850B8A7C
:1000BE003094FD1203062095219001D4E493FC7434
:1000CE000193FDECF509750800750A008D0B850985
:1000DE008C850B8A3095FD1203062096219001D84F
:1000EE00E493FC740193FDECF509750800750A00A4
:1000FE008D0B85098C850B8A3096FD120306309781
:10010E00030201A7E50DAE0C7802C333CE33CED871
:10011E00F9249EF58274023EF58374019325E0FF67
:10012E00E49333FE74AA2FF58274013EF583E493B3
:10013E00FC740193FDECF509750800750A008D0B32
:10014E00F58C850B8A3096FDD28CE50DAE0C7802BF
:10015E00C333CE33CED8F924A0F58274023EF58394
:10016E00E493FE740193FF12030C050DE50D70026E
:10017E00050CAE0C7802C333CE33CED8F9249EF5DF
:10018E008274023EF583740193F47002E49360036B
:0C019E00020112C28CF50CF50DC28C227F
:08033F00758901D2AFD2A92299
:06030600D28C7F027E0094
:10030C000FBF00010EEF1F70011E144E600F7C2CEE
:0D031C007DEEED4C60EFED1D70F81C80F5DE
:0103290022B1
:03000B00020336B7
:0903360085098C850B8AB2A03206
:00000001FF
